:020000040800F2
:1000000030170020FD7B0008397B00083B7B00088F
:100010003D7B00083F7B0008417B0008000000009A
:10002000000000000000000000000000BB78000895
:10003000437B00080000000075780008E5720008A6
:10004000A97D0008AD7D0008B17D0008B57D0008E0
:10005000B97D0008BD7D0008C17D0008C57D000890
:10006000C97D0008CD7D0008D17D0008D57D000840
:10007000D97D0008DD7D0008E17D0008E57D0008F0
:10008000E97D0008ED7D0008457B0008F17D000852
:10009000F57D0008F97D0008FD7D0008017E00085F
:1000A000057E00084B7B0008097E00080D7E0008D5
:1000B000117E0008157E0008197E00081D7E0008CC
:1000C000217E0008257E0008297E00082D7E00087C
:1000D000317E0008357E0008397E0008517B00081B
:1000E0003D7E0008417E0008457E00082DE9F14F65
:1000F000B0B0924604910DF142013A9A2B91994683
:100100004A7000200AE01AF8011B0498309A9047C0
:100110000028049000F06A860D98401C0D909AF813
:10012000000050B12528EED100210022079108924D
:1001300009910A920B910C9204E00D9800F058BEC0
:1001400041F001011AF8010F2028F9D023280CD022
:100150002B2804D02D2805D0302809D00BE041F001
:100160000201EFE741F00401ECE741F00801E9E7A3
:1001700041F01001E6E72A280FD1D9F8002052F803
:10018000040BC9F8002000280F9003D540420F90BF
:1001900041F004010AF1010A14E00F92DFF8583C23
:1001A0000AE00F98984205DA00EB800402EB440263
:1001B000303A0F920AF1010A9AF80020A2F13000B9
:1001C0000A28EED39AF800002E2803D04FF0FF3211
:1001D0000E9229E01AF8010F2A2809D1D9F8000057
:1001E00050F8042BC9F800000E920AF1010A1BE036
:1001F0002D280CBF0AF1010A002000220E92DFF820
:10020000F84B0BE040B90E9AA24205DA02EB8205E8
:1002100003EB4503303B0E930AF1010A9AF80030D4
:10022000A3F130020A2AEDD3ADF840100FF6CC301E
:100230009AF8001000F0FEFE08B11AF8010B8DF8D4
:1002400042009DF84200682805D19AF8000068280D
:100250000CD1622106E06C2804BF9AF800006C28DB
:1002600004D171218DF842100AF1010A12A80690FA
:100270001AF801BBBBF125012CD01C3900F0D68146
:10028000091F022940F2D281133900F0E1840939B3
:1002900000F0CC81891E00F07685491E00F0238590
:1002A000491E022940F2C281091F00F01C85491F26
:1002B00000F03181491E00F0CB84491E00F0D88047
:1002C000C91E0DD0891E00F0C384C91E00F0C08471
:1002D00000F064BD25238DF84830012100F069BD90
:1002E000D9F8000050F8044BC9F80000002C059420
:1002F00040F0AB802B994878002800F0A1804FF0A7
:10030000FF340FF6003000F0A5FE201A40F06E8595
:1003100000F050BD01236A4602A9304600F042FEBB
:10032000002840F063856D1EF4D13096079D12AF12
:1003300075B1309E17F8012B02A9304600F022FE5D
:10034000002801D46D1EF5D10028309640F04E856E
:100350000A9D3020002D8DF800000CDD309E012319
:100360006A4602A9304600F01DFE002840F03E8596
:100370006D1EF4D13096059F089D75B1309E17F81B
:10038000012B02A9304600F0FDFD002801D46D1EAE
:10039000F5D10028309640F029850B9D3020002DA6
:1003A0008DF800000CDD309E01236A4602A930461C
:1003B00000F0F8FD002840F019856D1EF4D130964C
:1003C00005980899099D471875B1309E17F8012BBB
:1003D00002A9304600F0D6FD002801D46D1EF5D1EB
:1003E0000028309640F002850C9D3020002D8DF8BD
:1003F00000000CDD309E01236A4602A9304600F061
:10040000D1FD002840F0F2846D1EF4D130969DF8A5
:10041000400041077FF583AE2020002C8DF80000BE
:100420007FF77DAE309D01236A4602A9284600F081
:10043000B9FD002840F0DA84641EF4D130956EE6F0
:100440000FF6C030059000F0B5BC0E9D002D04D510
:10045000204600F01FFE044607E02A46204600F032
:1004600023FE002814BF041B2C46089400F0A2BCF5
:10047000D9F8001051F8040BC9F8001020F000045E
:10048000002121F0FF3512ABCDE902450593DDE9EE
:10049000022306993C2413B90AB90E98A0B102F0C0
:1004A0000F05641E30353A2D08DA12090D5542EA5F
:1004B00003721B0908BF002A02D105E02735F4E7C3
:1004C00005980D19A842EAD308190590C4F13C0219
:1004D0000E98089282420ADABDF84010821A4FF64E
:1004E000EF7001400A92ADF8401000F063BC0028A4
:1004F00040F160849DF8400000F01400102840F0A6
:1005000059840F9B07990A985B1A1B1A9A1A002A9A
:1005100040F350849AE32B99487820B14FF0FF3490
:100520000FF6B020EFE69DF84200622860D0682800
:1005300017D06A283FD06C2806D0712847D074287D
:100540002CD07A281DD062E0D9F8001051F8040BA5
:10055000C9F80010002866D14FF0FF340FF68C2048
:10056000D1E6D9F8001051F8040BC9F8001020B9F1
:100570004FF0FF340FF67420C5E60D99018000F0AE
:1005800019BCD9F8001051F8040BC9F80010002864
:1005900049D14FF0FF340FF65420B4E6D9F80010DB
:1005A00051F8040BC9F8001000283CD14FF0FF347B
:1005B0000FF63820A7E6D9F8001051F8040BC9F857
:1005C000001080B94FF0FF340FF620209BE6D9F8D9
:1005D000001051F8040BC9F8001020B94FF0FF3497
:1005E0000FF608208FE60D9AD317C0E90023E1E348
:1005F000D9F8001051F8040BC9F8001020B94FF0D9
:10060000FF340FF6E8107EE60D990170D2E3D9F8B9
:10061000001051F8040BC9F8001020B94FF0FF3456
:100620000FF6C8106FE60D990160C3E3D9F80020FA
:10063000D21D22F00702C9F80020D2E900010832D9
:10064000C9F80020CDE90201C80F02D007982D217A
:100650000AE0BDF84000810702D507982B2103E08E
:10066000C00705D50798202112AA1154401C0790F5
:1006700012A80799DDE9024543184BF020006128D4
:10068000059321AE0BD00E98002802D506200E90BF
:1006900005E001BF4BF02000672801210E91DDE944
:1006A000020148004015401C0A460DD109030BD039
:1006B000ABF1610703201A2F089002D20FF6481100
:1006C0000DE00FF648110AE070B912030CD1ABF13E
:1006D000610703201A2F08901CD30FF6381103224C
:1006E000184600F00DFD65E3DDE902016A4600F001
:1006F00013FDCDE902014BF02000612811D10598CE
:1007000030210170821C0592BBF1610F0CBF782172
:10071000582102E00FF6F801E1E741700798801CCC
:100720000790DDE9020120F0000231F0004308BF2C
:10073000002A02D10025002445E14BF02008B8F141
:10074000610F40F095800E98002847BF212101914C
:10075000401C0190019F7F1C204629460022002357
:10076000DDE9024500F010FD38BF85F00045009935
:100770008DF88420091F002F00910DF1850034DDD4
:100780000646204629460022002300F017FD2BD202
:100790001C2200F02DFD04460D4600F0C7FDFF1F92
:1007A000002F804609DD00F0DDFD02460B462046A5
:1007B000294600F0A7FE04460D46F01D0721B8F1BA
:1007C000000F0CDD491E5EBF08F00F0200F8012D7E
:1007D0004FEA2818F3D502E0002200F8012D491E47
:1007E000FAD5C61D002FCCDC30460DF18501401A2C
:1007F00001990DF1850605468842C8BF0D46002DBA
:100800002FD4854206DA0DF18500415D0829A8BF85
:100810000F2000DA0020294621AA0A4400E06D1EBC
:1008200012F80139491E8342F9D00F2804D10DF185
:100830008500425C521C4254002904D50098001DDA
:1008400021AE6D1C0090681E0BD431180A7830322E
:10085000D3B23A2BA4BF5A443A3A401E01F80129B8
:10086000F4D50E98002840F1AD80691E0E91A9E0E4
:100870000099DFF8002747F29750414391FBF2F2CD
:10088000009225F00045C2F10702002A04DD20464F
:10089000294600F04BFB0BE052420020DFF8D8164F
:1008A00000F044FB02460B462046294600F09CFE21
:1008B00004460D46B8F1660F06BF009F0A370627AB
:1008C0000E983F18142FC8BF142730208DF88400CD
:1008D0000DF1850000E03046002F35DD064620464C
:1008E000294600F0A5FF01460A4606F10803042048
:1008F0000A26B2FBF6F606EB860EA2EB4E0230326B
:1009000003F8012C0A22B6FBF2F202EB820EA6EBF0
:100910004E063036401E03F8026DE9D1083F002F25
:1009200003F10806D7DD084600F094FF02460B46A7
:100930002046294600F0E6FD0022DFF8403600F0B0
:1009400097FF04460D46CAE70DF18501401A0DF1E7
:10095000850604E00099491E401E0091761C3178FE
:100960003029F7D0B8F1660F02D10099491C04E094
:10097000B8F1650F0CBF012100210E9D4D19A84251
:10098000B8BF451E002D1DD4854204DA705D3428A1
:10099000C8BF392000DC30202946721E531800E001
:1009A0006D1E13F80149491E8442F9D0392802D13D
:1009B000705C401C7054002904D50098401C1646F9
:1009C0006D1C0090009C01F049F8406A0778DDF842
:1009D000388028B2002802DC01250FF23C664BF07B
:1009E0002000662808BF641C16D0672846D120B2B4
:1009F00010F1040F48DB404546DA9DF84000641CC6
:100A0000010703D428B24045D8BF804620B2B8EBD6
:100A1000000848BF4FF000080FFA84FBBBF1000F3D
:100A200000F3B5800898411C0891302205990A54BA
:100A3000B8F1000F03DC9DF84000010704D50898C9
:100A4000411C089105990F5418EB0B0FB8BFC8F162
:100A5000000424B26042A0442AB20B909045B8BF73
:100A60004546059B08982DB209952A4631461844FB
:100A700000F046FBA8EB05000C90D2E0BBF1610F43
:100A800017D14FF0700B19E028B2404504DA9DF8F9
:100A900040100A0758BF8046B8F1010848BF4FF020
:100AA0000008BBF1670F14BF4FF0450B4FF0650B0B
:100AB00004E0BBF1410F08BF4FF0500B0898411CF8
:100AC0000891B8F1000F059916F8012B0A5403DCC0
:100AD0009DF8400001071AD50898411C0891B8F10B
:100AE000000F05990F5412DD6D1E28B28045B8BF66
:100AF00045460598089B2AB23146184400F000FB91
:100B000008992DB269180891A8EB05000B9005987B
:100B10000899084421B2002980F800B003D42B22A0
:100B20004270821C04E02D2242700C46821C6442FA
:100B300000212CAB20460AE004460A2094FBF0F08A
:100B400000EB8005A4EB450403F8014B491C00B2FF
:100B50000028F1DC012906DC4BF02000652804BFE9
:100B6000302002F8010B00292CAB08D1302002F80C
:100B7000010B06E0491E585C303002F8010B0029D9
:100B8000F8DC059908980844121A099249E028B23D
:100B900021B288421CDA0598089B2AB231461844D3
:100BA00000F0AEFA08992DB269180891ABEB050078
:100BB000B8F1000F0B9003DC9DF84000020704D54C
:100BC000059847540999491C0991CDF8308028E0CF
:100BD0000598089B22B23146184400F091FA089813
:100BE0002D1B5844B8F1000F089003DC9DF840100D
:100BF0000A0703D5411C089105990F5428B2804576
:100C0000B8BF45460598089B2AB206EB0B0118446D
:100C100000F076FA08982DB228180890A8EB050085
:100C20000B909DF8400000F01400102840F0C280A6
:100C3000079A08990B988A18099982180C988A18AB
:100C400082180F98824280F2B580821A0A92B1E02F
:100C50009DF84200622808D068280ED06A2814D077
:100C60006C281FD0712810D01CE0D9F8001051F862
:100C7000040BC9F80010C0B21AE0D9F8001051F8FE
:100C8000040BC9F8001080B212E0D9F80020D21D80
:100C900022F00702C9F80020D2E900010832C9F8A1
:100CA000002006E0D9F8001051F8040BC9F8001034
:100CB0000021CDE902019DF8400001075AD5DDE988
:100CC0000223002B08BF002A54D04BF020007828C4
:100CD00050D1079812A930220A54401C431C079394
:100CE00001F800B046E09DF84200622808D068286C
:100CF0000ED06A2814D06C281FD0712810D01CE0A8
:100D0000D9F8001051F8040BC9F8001040B21AE0ED
:100D1000D9F8001051F8040BC9F8001000B212E025
:100D2000D9F80020D21D22F00702C9F80020D2E92C
:100D300000010832C9F8002006E0D9F8001051F887
:100D4000040BC9F80010C117CDE90201002902D532
:100D500007982D210AE0BDF84000810702D50798C9
:100D60002B2103E0C00705D50798202112AA1154B2
:100D7000401C079012A807990144059102A8594602
:100D800000F04EF816E001200790D9F8000050F866
:100D9000041BC9F800008DF848100BE02521012242
:100DA000BBF1000F8DF84810079203D08DF849B0C1
:100DB000022107910F9A07980A990C9C121A089819
:100DC000521A0B99121A0998521A121A9DF84000D9
:100DD000141B41073FF5AAAA2020002C8DF8000023
:100DE0007FF7A4AA309E2546FFF794BA4FF0FF3054
:100DF00031B0BDE8F08F0000CBCCCC0C686A6C74CD
:100E00007A4C00007072696E74665F733A2062619A
:100E10006420257320617267756D656E7400000033
:100E20002DE9FC4304466F29256908BF082605D033
:100E300041F02000782814BF0A261026D4E90023A8
:100E40003C2790469946642918BF692905D1002B93
:100E500003D5D8F1000869EB4909B9F1000F08BFC3
:100E6000B8F1000F0CD1206B50B9082E3AD194F88C
:100E70003800010736D530203B2785F83B0031E0AC
:100E80008DF80010404649463246F31700F0ECFD5D
:100E90003032D0B27F1E3A2801970EDAEA5540462A
:100EA00049463246F31700F0DFFD80465FEA01094C
:100EB00008BFB8F1000F05D108E09DF80000121836
:100EC000513AEBE7E068E9198842DBD3082E09D1F3
:100ED00094F83800010705D5E85D302802D07F1E60
:100EE0003020E855C7F13C02A261E919E160206BAE
:100EF000824208DA821A22624FF6EF70218F014097
:100F00002187BDE8F38300280ED594F8380000F05F
:100F10001400102808D1636B6169206A5B1A1B1AE0
:100F20009A1A002AC8BF2262BDE8F3832DE9D04394
:100F300006460F4614464FF00008DFF8449012E0D2
:100F4000E00707D542464B463046394600F090FC54
:100F500006460F464046494642464B4600F088FC4E
:100F6000641080468946002CEAD130463946BDE8F7
:100F7000D0830000A08601000000F03F84D7974195
:100F80000000244010B503460C461146A06898475F
:100F9000A06020B1E06A401CE062002010BD4FF06C
:100FA000FF3010BDF8B505460E4617461C4600201A
:100FB0005CB117F8011BB068A847B06030B1F06AA7
:100FC000401CF0620020641EF3D1F2BD4FF0FF30F0
:100FD000F2BD00007072696E74665F733A20256E10
:100FE00020646973616C6C6F776564007072696E00
:100FF00074663A2062616420256E20617267756DA7
:10100000656E7400000000006E616E004E414E007F
:10101000696E6600494E460030008268521C82604C
:10102000426832B10268531C036011704168491E66
:1010300041607047C9B202788A421AB11CBF10F8E9
:10104000012FF9E718BF002070470268531C0360A6
:101050001170704780B500B906A005490B681BB137
:1010600022220021984701E000F016FE222002BD56
:1010700024130020636F6E73747261696E7420684C
:10108000616E646C65723A20626164206D65737391
:101090006167650000F1010310F8011B11B110F840
:1010A000011BFBE7C01A7047C9B2830706D0521E66
:1010B00022D310F8013B9942F7D11FE0083A13D32D
:1010C00002F1040241EA012141EA014150F8043BE6
:1010D000121F21BF4B40A3F1013C2CEA030C1CF072
:1010E000803FF3D0C9B2001F083210F8013B521EF6
:1010F00028BF91EA030FF8D818BF0120401E70479F
:101100004AB1000011F8013B521E00F8013B1CBF20
:1011100011F8013BF8E7704710B5144600F002F8EB
:10112000226010BDC1F30A5343B14A0012F5001FFB
:1011300028D2A3F2FE32A1EB0251704750EA410CD3
:1011400020D001F0004C31EA0C01B1FA81F204BF69
:10115000B0FA80F3D2180B3AB2F120032CBF00FA98
:1011600003F1914041EA0C013EBFC2F1200C20FA8C
:101170000CF319439040524240F2FD33D21A01EB76
:10118000035170470022704741EA030C50EA4C0CAF
:1011900052EA0C0C4FF4001C09D307D01CEB410F92
:1011A0009CBF1CEB430F8B4208BF824270471CEB75
:1011B000430FFBD8994208BF9042704741EA030CA5
:1011C00050EA4C0C52EA0C0C4FF4001C09D307D027
:1011D0001CEB410F9CBF1CEB430F994208BF904290
:1011E00070471CEB410FFBD88B4208BF824270470F
:1011F000124254D440F2FF7C1CEA11530FD06345D5
:1012000031D09B1863453CBF01EB0251704701F0A0
:10121000004141EA0C510020AFF30080704750EAD2
:10122000410320D001F0004C91EA0C011CD0B1FA2E
:1012300081F30B3B9A420DD9D21A994051EA0C0125
:10124000C3F1200C20FA0CFC61449840531C40F27E
:10125000FF7CD7E7914041EA0C01C2F1200C20FA53
:101260000CF3194390407047B0FA80F31533202BEC
:10127000E0D3202AEED3203A203B9A4209D9D21A51
:1012800000FA03F141EA0C010020531C40F2FF7CFC
:10129000B8E700FA02F141EA0C010020704752421F
:1012A00040F2FF7C1CEA11530DD06345DBD0B2EB5A
:1012B000030C3CBFA1EB025170470CF1010221EA83
:1012C000035141F4801150EA410CCCD001F0004CA4
:1012D000352A27DC30B481EA0C01B2F1200309DAA7
:1012E000C2F12003044601FA03F5D0402843D1405F
:1012F0009C400CE0C3F12002450020FA03F418BF23
:1013000044F0010421FA03F091400C43002174F1F0
:10131000004550F1000051EB0C01244230BC7FF439
:101320007BAF70476146002076E72E00C1F30A5379
:1013300040F21E42D31A0CDDCA0283F3070342EACD
:10134000505242F00042DA4002EBE17282EAE17070
:1013500070476FEAE17203F2E13008B182F00040B9
:101360007047430010F0004160B148BF4042B0FAFE
:1013700080F29040D21CC2F5846241EA025202EB34
:10138000D02140057047000070B491EA030F4FF080
:10139000004540F1BF806B40841A71EB030604D214
:1013A0006E40001BB141121973414FF4001C1CEB3D
:1013B000410F34BF7CEB430683E00C0DA4EB1356C6
:1013C000362E00F37C80012E45EAC32341DC43EA3C
:1013D000525312BFD20292025B08240545EAC12192
:1013E00041EA5051D2EBC020994125D407D1B0FA3F
:1013F00080F610FA06F162D00020203608E0B1FA3B
:1014000081F6B140C6F1200220FA02F21143B04049
:101410004FEAF474B4EB465434F001064FEA740416
:101420000AD8D6F50016760D04F00044F04061FAB3
:1014300006F25040F1404840C00A40EA415021F0D5
:10144000004128BF5FEA500550F1000044EBD12174
:1014500035E0DB0A45EAC121C90AB6F120050EDDF7
:1014600042EA0242120CC5F1200603FA06F6EB40EE
:1014700042EA06056D42984161F100010DE062FA11
:1014800006F5F240554063FA06FC82EA0C02F3408E
:101490005A406D42904161EB030111F4801F05D168
:1014A000641E620502D06D004041494121F4801163
:1014B000430875F1004350F1000041EB045170BC4A
:1014C00070471CEB410F15D223F0004352EA43064C
:1014D0000BD04FEA4C0CBCEB410F04D80C0D661E30
:1014E000342EB7DDEBE7801A994150EA410608BF78
:1014F0000021E4E708BF1CEB430F28BF6FF0000199
:10150000DDE7000070B491EA030F4FF000457FF56E
:1015100043AF6B40841A71EB030603D2001BB14149
:10152000121973414FF4001C1CEB410F34BF7CEBCC
:10153000430442E00C0DA4EB1356352E4FDC45EA74
:10154000C323DB0A45EAC121C912B6F120050DDD2E
:1015500063FA05F6EB4086EA0305124218BF45F030
:101560000105C01851F100010CD213E062FA06F532
:10157000F2405540F3415A40B340F3405A4080187E
:10158000594107D349085FEA30005FEA350528BFB3
:1015900045F0010501F58011420875F1004250F156
:1015A000000041EB04514E0016F5001F70BC38BF1F
:1015B00070470020090D090570471CEB410F10D240
:1015C00052EA43060BD0BCEB410F05D80C0DAB43E0
:1015D000661E342EB6DD02E0AB438018594170BC64
:1015E000704770BC70470000F0B540F2FF7581EAAB
:1015F000030C0CF0004C15EA11541DBF15EA1357EB
:10160000AC42AF42E5E0BC41C1F31301C3F31303A5
:10161000801A994143F4801304D2641E0018494192
:1016200080185941C90241EA5051B1FBF3F603FB5E
:101630001611A2FB0675D7EBC020A94102D2761E77
:1016400080185941C90241EA5051B1FBF3FE03FB36
:101650001E11A2FB0E75D7EBC020A94103D2AEF13B
:10166000010E80185941890241EA9051760546EAF7
:101670008E2EB1FBF3F603FB1611A2FB0675D7EB1A
:101680008020A94102D2761E80185941C90241EA40
:1016900050514EEA060EB1FBF3F603FB1611A2FB06
:1016A0000675D7EBC020A94102D2761E8018594199
:1016B000C90241EA5051B1FBF3F703FB1711A2FB3A
:1016C0000735D3EBC020A94167F100070CBF0042EA
:1016D00047F0010766F3D5274FEA1E31B80814F525
:1016E000806412DDBD0775F1004250EB0E5051EBE6
:1016F000045111F5801F5CBF41EA0C01F0BD4CF0B4
:101700007F6141F0E0410020F0BDBD076D0840EA77
:101710000E5041F48011D4F10104B4F120060ADA2C
:10172000C4F120060200E04001FA06F3E14018434C
:10173000B24015430EE0342C13DCC6F1200445EA18
:1017400040056D0820FA06F2154321FA06F0A14083
:101750000D43002175F1004250F1000051EB0C01E6
:10176000F0BD00205FEA0C01F0BDCFB992185B41DB
:10177000B3FA83F704BFB2FA82F6BF190B3FB7F191
:1017800020062FBF02FA06F3BB40C7F1200622FA5B
:1017900006F638BF3343BA401CB1E419641E33E780
:1017A0007F4231F00041B1FA81F404BFB0FA80F613
:1017B000A4190B3CB4F120062FBF00FA06F1A1409A
:1017C000C4F1200620FA06F638BF3143A0403C1B86
:1017D0001AE7AC421ABF05EA1357AF4212E050EACB
:1017E00041061CBF52EA4306BFE750EA41073046B4
:1017F00061461CBF41EA0551F0BD52EA430C08BFE7
:10180000C143F0BD00204FF4001616EB410F98BF06
:1018100016EB430F08BF16EB410F24BFC14305E091
:1018200016EB430F0CBF61464CEA0551F0BD0000BA
:10183000400D40F21E4C40EAC120BCEB115C40F070
:10184000004003D48CF30701C84070476FEAE17091
:101850007047000050B1B0FA80F18840C91CC1F552
:101860008461090501EBD0214005704701467047AE
:1018700030B540F2FF7C1CEA11541DBF1CEA135521
:10188000644565453FE0641981EA030C6FF35F53DB
:101890000CF0004C43F48013C90241F0004141EACE
:1018A000505EC5021100A5FB020200284FF00000A7
:1018B000EEFB01204FF00001E3FB052118BF42F0D1
:1018C0000102401800214941E3FB0E01A4F58064A8
:1018D0000D0302D292184041494154F1010470DDD8
:1018E000450872F1004250F1000051EB0451A1F59E
:1018F000801102D441EA0C0130BD40F2FF7E4CEA77
:101900000E51002030BD0CEA1355644518BF6545E3
:1019100081EA030C0CF0004C41D050EA410E1CBF90
:1019200052EA430E02E06146002030BD24422C44BE
:101930001BD15FEA050EF6D0090302BF0146002065
:10194000AEF1140EB1FA81F5AEEB050401FA05FE15
:101950000C35C5F1200100FA05F5C8404EEA000E2D
:101960006FF35F5343F480139CE733F00043B3FA03
:1019700083F504BFB2FA82FE75440B3D641BB5F1DA
:10198000200E2FBF02FA0EF3AB40C5F1200E22FA53
:101990000EFE38BF43EA0E03AA40641C7CE750EAFF
:1019A000410E14BF52EA430E6FF000014FF40015D0
:1019B00015EB430F8EBF194615EB410F9DE7B4D8C9
:1019C00030BDD4F10104B4F120050FDAC4F12005D3
:1019D000520828BF42F0010210FA05FE01FA05F58F
:1019E0007244E2BFE0402843E1400FE0352C9ADC2E
:1019F000C5F1200452EA400220FA05F218BF42F075
:101A0000010231FA05F0A1400A43002172F10042BF
:101A100050F1000051EB0C0130BD0000613807E0CF
:101A200005E0A0F161011A2901D201207047413877
:101A30001A288041C00F7047A0F10901052901D380
:101A4000202801D10120704700207047A0F14101FA
:101A50001A2938BF20307047014870470148704745
:101A60004C01002014010020BBBBE1B1B2F5803F66
:101A700080F07E80022A1ED98C46B1FBF2F102FB77
:101A800011C31B0443EA1043B3FBF2FC02FB1C33FB
:101A900080B240EA0343B3FBF2F002FB103240EAAB
:101AA0000C4000237047022A05D98446B0FBF2F0AF
:101AB00002FB10C270474AB105D100F0010249088B
:101AC0005FEA3000704700220023704700F0E8B85A
:101AD0000B000200002100207047904271EB030CC4
:101AE000F6D3B3F5803F2FD2F0B5B3FA83F7B1FA4E
:101AF00081F4A7F10F0E3D1B5340CEF1200602FAF0
:101B00000EF2F3415340B5F10F0746D80F3C2C4479
:101B10004140C4F12006A040F1414140B1FBF3F641
:101B200003FB1611A2FB0645001BA94102D2761E3B
:101B30008018594180EA010221FA0EF362FA0EF28E
:101B400000215A403046F0BD30B4B1FBF3FC03FB3A
:101B50001C11A2FB0C45001BA94103D2ACF1010CE6
:101B60008018594130BC02460B4660460021704740
:101B7000B2F1807F65D3F0B5B2FA82F7B1FA81F4A1
:101B8000C7F10F063D1B22FA06F307F1110EF241D1
:101B900020355A40B5F10F07B8D94140C4F12006AD
:101BA000A040F1414140B1FBF3FC03FB1C11A2FB3F
:101BB0000C45001BA94103D2BCF1010C801859410E
:101BC0000F2F12D30F3FC90341EA5041B1FBF3F687
:101BD00003FB1611A2FB0645D4EBC030A94102D28B
:101BE000761E8018594146EACC3C07B34140C7F104
:101BF0002006B840F1414140B1FBF3F603FB16115A
:101C0000A2FB0645001BA94102D2761E801859414D
:101C100080EA010221FA0EF3C7F1200462FA0EF203
:101C20000CFA07F05A402CFA04F13043F0BD80EA78
:101C3000010221FA0EF3002162FA0EF260465A40C8
:101C4000F0BD8C46B1FBF2F102FB11C31B0243EA6B
:101C50001063B3FBF2FC02FB1C331B024CEA0020B6
:101C600043EA1063B3FBF2FC02FB1C331B024CEA99
:101C7000002043EA1063B3FBF2FC02FB1C331B029F
:101C80004CEA002043EA1063B3FBF2FC02FB1C3277
:101C90004CEA002000237047012000F003B8000048
:101CA0007047000080B5AFF30080024A1100182091
:101CB000ABBEFBE726000200F8B5040022D004F119
:101CC0003C05697821B900202870204600F0A2FE6A
:101CD0002421697000F09EFC2068016841F40041F5
:101CE00001602068026822F40042026001F0FDF801
:101CF00001466068DFF82025904205D2DFF81C35E8
:101D0000994205D20120F2BDDFF814058142F9D3D2
:101D10002068DFF810354668B1FBF3F3B60943EAF3
:101D2000861646602668376A6068904206D34FF48C
:101D3000967043434FF47A70B3FBF0F35B1CBF091A
:101D400043EA87133362491E2368DE696768974256
:101D500006D27F0000F044F8042913D2042111E0D8
:101D6000A06820B907EB470700F03AF805E0192012
:101D7000474300F035F841F4804108050CBF0121CC
:101D800041F40041DFF8B40506400E43DE612268ED
:101D90001368E169206A23F0C0030B430343136017
:101DA0002268DFF89C05936821690340E0680B43D3
:101DB000034393602168CA68A3696069120A0343F8
:101DC00043EA0222CA602068016841F00101016013
:101DD000002068602021697020630021A970F2BD95
:101DE000B1FBF7F1491CC1F30B0170472DE9F84332
:101DF00004460E46154600F00AFC04F13C078046F6
:101E0000787820287CD1CDF8008000F092FA00F09C
:101E1000CDFB002874D13878012871D000F073F818
:101E200021207870102100F0E7F900F098F90829D6
:101E300018BF012904D081421CBF206B122801D198
:101E400000F0F8FBCDF800800022089D2B4600F042
:101E5000ABFB30B100F0EAFB4BD54FF4007078607B
:101E600047E02069B0F5804F08BF06F0FE060CD0B1
:101E7000F109206801F0060141F0F00101614346DB
:101E800000F07FF9002834D1F6B22068DFF8B414EE
:101E9000066143462A4600F077F9002829D10090D0
:101EA00021684A69009289690091009A208D002872
:101EB00021D04246294600F019FCA8B900F090F95B
:101EC000401E208521684A69530706D580B220B19B
:101ED000606A02780A6100F066F9424629462046A7
:101EE00000F01CFD0028E1D07868042801D100F042
:101EF0003DF9012005E000F039F900F085F900E036
:101F00000220BDE8F2830121397020680268D10700
:101F100003D4026842F0010202602068016821F4E3
:101F20000061016070472DE9F84F044600200090E1
:101F30008946154600F043F900F044F905D10096B2
:101F400000F0F7F900F032FB002840F0FF8038780D
:101F5000012800F0FB80FFF7D6FF222078701021C7
:101F6000B970002078606562A4F82A80608D00F066
:101F7000F6F82268136843F480631360082918BFD9
:101F8000012904D081421CBF206B112801D100F02F
:101F900051FB009600220A9D2B4600F005FB4FF4F2
:101FA000007A30B100F042FB48BFC7F804A001201E
:101FB000CDE02069DFF88C83B0F5804F07D149F080
:101FC00001005FFA80F92068C0F810902CE04FEA19
:101FD000D910226800F0060B4BF0F0011161334676
:101FE00000F0CFF80028E2D120685FFA89F9C0F844
:101FF000109033462A46414600F0C6F80028D6D154
:1020000000902B4600F0E5F821680A68084642F483
:1020100080720260009600F0C6FA0028C2D12068E3
:102020004BF0F10BC0F810B033462A46414600F0A1
:10203000ABF80028BBD1208D10B900F07EFA1DE06E
:10204000012802D100F0C6FA05E0022820680168E4
:1020500005D100F0AEFA0846026062B60EE000F06C
:1020600096F80BE000F088F80028A0D100F07AFA8A
:10207000208D6262411E218500F05BFA208D0028D0
:1020800061D0042855D20128ECD00228DFF88C1446
:1020900000962B4610D1002200F088FA002886D145
:1020A00000F063F820680169606A017000F03AFA94
:1020B00000F03FFA62B6D9E7002200F077FA002874
:1020C000EDD100F048FA4FF47A7E20680169606A29
:1020D0000170616A208D4A1C411E62622185608DFB
:1020E000DFF83C24411E618519211368B3FBF1F12F
:1020F000B1FBFEFE232000FB0EFECDF800E000F059
:102100007CFA20B1216848694107F8D50AE02063CC
:1021100020217970B870796841F02001796062B649
:10212000387044E700F094FA21680A69606A027026
:10213000BCE700F021F80028F3D100F023FA9DD588
:1021400000F007F894E700F05FF800E00220BDE837
:10215000F28F0069616A0870606A421C70472085CE
:10216000DFF8A004E062E16A704772B62068016897
:1021700041F400710160704732462946204600F064
:10218000EABB2A46DFF88014204600F059BB41F430
:10219000806101600020009021684A69009289698D
:1021A000009100987047606A411C6162608D411E19
:1021B0006185208D411E218570470D4691469846C8
:1021C00000F0E2BE04F13C0706467878202870470C
:1021D000009021684A6900928969009100987047CF
:1021E000606A226801781161606A411C6162608DD9
:1021F000411E6185208D7047B9700020786065624E
:10220000A4F82A90608D7047202078700021B97062
:102210000020387070470000A186010080841E00F5
:1022200000093D0040420F002DE9FC47064600F042
:102230008BF800F070F865D1009400F07AF8304621
:1022400000F0D6FA00285DD1387801285AD000F085
:1022500080F84146D6F800E00C9D0B98DDF828C0C8
:10226000DEF8008028F40068CEF800804FF0210EE0
:1022700087F801E04FF0400887F802804FF0000E29
:10228000C7F804E0C6F824C070855346708DDFF8A7
:1022900074C33085C6F82CC04A4601940095304678
:1022A00000F0DDF9002826D106E0716A0A780261A3
:1022B00000F037F8411E7185308D88B122462946DD
:1022C000304600F000FB88B9706A3268017811610D
:1022D00000F027F800F019F8EED589B20029E4D112
:1022E00022462946304600F019FB30B178680428B0
:1022F00001D100F075FA012005E000F071FAFFF756
:1023000083FF00E00220BDE8F687421E7285306838
:1023100042695307704706F13C0704467878202845
:102320007047706A411C7162308D411E3185708D1D
:10233000704719230122DFF8141370470030FFFFA4
:10234000007CFFFF02000100884691469A4600F09B
:102350001BBE0121397030680268D10703D40268BE
:1023600042F00102026070472DE9FC47044600205C
:102370000090FFF7E9FF04F13C060546707820283D
:1023800005D10095FFF7D5FF00F010F9002840F0C7
:10239000C1803078012800F0BD800121317000F04B
:1023A000E8F84146D4F800E00C9F0B98DDF828C00F
:1023B000DEF8008028F40068CEF800804FF0220E8E
:1023C00086F801E04FF0400886F802804FF0000EDA
:1023D000C6F804E0C4F824C060855346608DDFF879
:1023E00024C22085C4F82CC04A4601950097204697
:1023F00000F07EF9002874D1208D10B900F09DF80E
:102400001FE0012802D100F0E5F805E0022820686D
:10241000016805D100F0CDF80846026062B610E010
:10242000FFF7B5FE0DE02A463946FFF7A7FE002864
:1024300057D100F097F8208D6262411E218500F08F
:1024400078F8208D00285ED0042850D20128EAD0E8
:102450000228324900953B4610D1002200F0A6F830
:1024600000283ED1FFF781FE20680169606A017093
:1024700000F058F800F05DF862B6DAE7002200F0EC
:1024800095F870BB00F067F84FF47A7E2068016918
:10249000606A0170616A208D4A1C411E626221855A
:1024A000608D1F4A411E618519211368B3FBF1F14C
:1024B000B1FBFEFE232000FB0EFECDF800E000F095
:1024C0009CF820B1216848694107F8D50BE02063EA
:1024D00020217170B070716841F02001716062B6A6
:1024E0003070012017E0206800F09AF8BCE72A4617
:1024F0003946FFF743FE0028F3D100F043F8A0D59A
:10250000FFF727FE97E7202070700021B1700020B0
:10251000307000E00220BDE8F687000004000100F2
:1025200018000020616A208D4A1C411E62622185CC
:102530007047608D411E61857047009021684A692F
:10254000009289690091009821680A68084642F45F
:102550000072026070472068016821F480610160A8
:1025600072B6704720680169606A0170616A4A1C2E
:10257000704720680268D10703D4026842F0010264
:102580000260704720680169606A0170616A208D8D
:102590004A1C411E62622185608D411E6185206852
:1025A00041694A07704700224FF00111204600F0B0
:1025B0001FB941F40061016072B6002000902168EB
:1025C0004A69009289690091009821680A6822F49A
:1025D000806270472068016821F48061016072B6F2
:1025E0000020009021684A69009289690091009852
:1025F00021680A6842F4007270470098401E0090FB
:10260000009870470000FFFF0800010090469946BF
:1026100000F0BABC2068026852085200026070479D
:102620000168024641F4007111607047206801683A
:10263000CA0570472068016841F4807101607047E5
:102640003068016841F48071016070470200100039
:1026500021680A68084642F40072026070472DE95A
:10266000F84304462068DDF82080099FD0F800C0B8
:102670004CF4807C894615461E46C0F800C0009781
:102680004346FFF790FF38B1FFF7D0FF44BF4FF448
:1026900000702064032026E02068DFF8501109F064
:1026A000FE09C0F810903B464246FFF76DFDA0B909
:1026B0000090216800F07AF800F018F840B9012E77
:1026C0000DD02168280A08613A4600F00EF830B1B2
:1026D000206C042801D1FFF749FD012003E02068A8
:1026E000EDB205610020BDE8F28341462046EAE0F4
:1026F0002DE9F84F05462868DDF828800B9F0C4629
:1027000000F069F816462868D0F800C04CF4807CC8
:102710009946C0F800C000F056F800284FF4007A3F
:102720002CD12968DFF8C4B004F0FE00086100F085
:1027300045F8002832D10090296800F037F800F001
:1027400033F870B9B9F1010F05D02968300A086172
:1027500000F028F828B92868F6B2066100F022F8DF
:1027600030B1286C042819D1286800F03AF815E037
:102770002868FFF766FF00F026F838B1286801687E
:10278000CA0548BFC5F840A0032008E0286844F007
:102790000104E4B2046100F011F800B10120BDE8C9
:1027A000F28F00003A46414628468CE04A69009282
:1027B0003A46896900914146009870473B46424637
:1027C000594628463CE00097434600224FF001114D
:1027D00028460DE03068016841F48061016070476F
:1027E0003068016841F40071016070470200010027
:1027F0002DE9F041069F05460E4690461C463102E3
:102800002868090E01290CBF40698069304080B2F8
:10281000B1B288420CBF0120002040450DD114F117
:10282000010FECD000F0B0FBC01B844201D3002CA0
:10283000E5D100F065F8012000E00020BDE8F0815E
:10284000F8B505460E4614461F463102090E2868A3
:1028500001291AD14169314089B2B2B291421AD0EC
:102860004069410519D5286800F025F82A685061AB
:10287000002105F13C0029632022427081704268EA
:1028800042F004024260017013E08169314089B274
:10289000B2B29142E4D10020F2BD14F1010FD4D0C4
:1028A00000F072FBC01B844201D3002CCDD100F09C
:1028B00027F80120F2BD0268014642F400720A6066
:1028C0006FF48060704770B505460C461646286860
:1028D0004169080612D4284600F06AF808B10120C0
:1028E00070BD14F1010FF2D000F04EFB801B84424A
:1028F00001D3002CEBD100F003F8F0E7002070BD0D
:1029000000202863202105F13C00002241708270E4
:10291000416841F0200141600270704770B5054682
:102920000C46164628684169480712D4284600F02C
:102930003FF808B1012070BD14F1010FF2D000F092
:1029400023FB801B844201D3002CEBD1FFF7D8FF7F
:10295000F0E7002070BD70B505460C4616462868A5
:1029600041694A0618D44169CA0607D400F00CFB35
:10297000801B84420BD3002CF1D108E06FF01001D2
:10298000416100F00BF841600270012070BD00F061
:1029900005F841F02001F6E7002070BD0020286313
:1029A000202105F13C00002241708270416870478F
:1029B00010B501684A6953050DD56FF480644C6108
:1029C000002101633C30202343708170436843F051
:1029D00004034360017012F4806018BF0120C0B28C
:1029E00010BD0000254A2648264980B542600023D4
:1029F0004FF4804201608360C36002614361836180
:102A0000C3610362FFF758F918B1BDE8014000F057
:102A100023BB01BD18B585B004461022002101A8D2
:102A200000F01CFB21681748814224D1164C216814
:102A300041F0080121604FF44071206800F0080067
:102A400000901222009811480191029203210491F2
:102A500001A900F00DFB0E48016841F0E06141F072
:102A600002010160606840F400106060606800F47A
:102A700000100090009806B010BD0000801A0600FB
:102A8000801100200054004018100240000C01404A
:102A9000040001402DE9F843040016D02078DFF847
:102AA000A464C10713D5706800F00C00042807D097
:102AB000706800F00C00082841D17068C1033ED551
:102AC0003068810303D56068002800F064812078B5
:102AD000DFF88074810719D5706810F00C0F07D0EB
:102AE000706800F00C00082861D17068C1035ED4E2
:102AF0003068810703D52069012840F04C81316896
:102B0000606921F0F80141EAC001316021780807CD
:102B100040F18180A069DFF84014002800F0A68011
:102B200001220A6000F030FA0546706A810763D41A
:102B300000F02AFA401B0228F7D903202EE1606832
:102B4000B0F5803F04D1306840F48030306014E04C
:102B500008B930680AE0B0F5A02F306806D140F41B
:102B600080203060316841F4803105E020F480300D
:102B70003060316821F480213160606858B100F024
:102B800003FA054630688103A1D400F0FDF9401B2B
:102B90006528F7D3D1E700F0F7F9054630688103DF
:102BA00095D500F0F1F9401B6528F7D3C5E72069FA
:102BB000A8B10121396000F0E7F9054630688107C6
:102BC00005D400F0E1F9401B0228F7D9B5E73068D9
:102BD000616920F0F80040EAC100306096E7386093
:102BE00000F0D2F90546316888078FD500F0CCF99E
:102BF000401B0228F7D9A0E7DFF84C030168C90899
:102C00004FF47A72B1FBF2F2009200BF0098411EBD
:102C100000280091F9D1207841076ED5F069002590
:102C2000C10009D4F06940F08050F0610125F069DD
:102C300000F0805000900098DFF82083D8F8000062
:102C4000C10520D4D8F8000040F48070C8F8000016
:102C500000F09AF98146D8F80000C10513D400F0BD
:102C600093F9A0EB09006528F5D366E7086000F04A
:102C70008BF90546706A8107CDD500F085F9401BB8
:102C80000228F7D959E7E068012808D008B9306A66
:102C900009E00528306A06D140F004003062306A4D
:102CA00040F0010005E0400840003062306A20F04A
:102CB0000400306241F28938E06860B100F064F9E4
:102CC0008146306A810713D400F05EF9A0EB090059
:102CD0004045F6D331E700F057F98146306A810765
:102CE00006D500F051F9A0EB09004045F6D324E7E2
:102CF0001DB1F06920F08050F061E06900284CD0EF
:102D0000716801F00C01082938D002282AD100F09E
:102D100047F805463068810105D500F035F9401BBC
:102D20000228F7D909E7206AB0F5803F05D171681C
:102D3000A06821F40031014371607268206A616A01
:102D400022F4741202430A437260012000F029F851
:102D500004463068810120D400F016F9001B0228D7
:102D6000F7D9EAE600F01CF804463068810114D572
:102D700000F00AF9001B0228F7D9DEE601280AD084
:102D80007068226A00F48031914202BF00F4701032
:102D9000616A884201D0012000E00020BDE8F28392
:102DA0000020386600F0F0B82DE9F04104008846B4
:102DB0004ED06B4E00F077F802D200F06FF847D19A
:102DC0002068604D810712D5400703D5696841F43A
:102DD000E06169602078010703D5686840F46050BD
:102DE00068606968A06821F0F0010143696021789A
:102DF000C80725D56068012802D129688A0303E045
:102E00000228296802D18A0102D421E08A071FD54D
:102E10006968890840EA8100686000F0B5F80746F3
:102E20006868616800F00C00B0EB810F08D000F01A
:102E3000ABF8C01B41F289318842F1D303202BE06B
:102E4000306800F00700804504D200F027F801D078
:102E5000012021E02078410705D56A68E06822F466
:102E6000E06202436A602178080706D56968206934
:102E700021F4605141EAC001696000F019F86A6804
:102E80003849314BC2F30312895CC840186030489E
:102E9000006800F0E1F90020BDE8F0813168C90860
:102EA00048EAC1013160306800F0070040457047D2
:102EB0002D4926480A6802F00C03082B00D0704701
:102EC00010B500BF2BA4C2F38343D203E35C08D543
:102ED000096858432BA3C1F340415A5CB0FBF2F0A0
:102EE00010BD18462149484310BD17481E4A0068C6
:102EF00013681F49C3F3022206E013481A4A006808
:102F000013681B49C3F3C222895CC840704710B5DF
:102F10000F220260144A136803F00303436014682D
:102F200004F0F0048460136803F4E063C360126883
:102F3000D20802F4E06202610948026802F0070266
:102F40000A6010BD001002401800002000127A0034
:102F50001400002000004242800442420070004001
:102F600000200240A47A00080410024000093D003D
:102F7000F07C000802030405060708090A0B0C0D83
:102F80000E0F10100102000001484068704700BF9A
:102F90000C00002080B500F09BF900F011F800F063
:102FA000A9F900F02FFAFFF71DFD00F0E7FA00F095
:102FB00049FB00F05CFB00F01FFC00F0CBFDFEE7DE
:102FC00000B593B02822002109A800F047F8142288
:102FD0000021684600F042F81022002105A800F008
:102FE0003DF80221012209910D92102102220E9139
:102FF000109200214FF460121191129209A8FFF76C
:1030000049FD08B100F028F8022101910F204FF48A
:10301000806100900022039102920492022168468E
:10302000FFF7C2FE08B172B6FEE702214FF400427C
:103030000591079205A800F0C9FD08B172B6FEE738
:1030400013B000BD00680349884208BF00F098BE75
:1030500070470000002C014072B6FEE710B5044630
:1030600010460A460146204600F092FE204610BD5A
:103070002DE9F8474FF0000E00246A4A6A4BDFF84A
:10308000AC814FF00F0982460DE0D7683840D06020
:1030900007E0C2F808C04D68AD02F6D5D068074316
:1030A000D7600EF1010E0F6837FA0EF000F0AE8017
:1030B000012000FA0EFC0CEA07076745F1D14868C9
:1030C00038B301281AD002281DD003282ED0112889
:1030D00016D012281AD0564DA8421CBF554DA842F2
:1030E00017D0554DA8421CBF544DA84211D0544D85
:1030F000A8421CBF534DA8420BD018E0CC6816E084
:10310000CC68241D13E0CC68083410E0CC680C3483
:103110000DE0886808B9042409E0012819BF0824D3
:10312000CAF814C00824CAF810C000E00024B7F59B
:10313000807F03D250464FEA8E0C05E0AEF10805C1
:103140000AF104004FEA850C056809FA0CF6B5434C
:1031500004FA0CF646EA050CC0F800C04868C00046
:103160009FD5D8F8000040F00100C8F80000D8F85A
:10317000005005F0010500954FEA8E0500984FEAD2
:103180009E0053F8206005F00C0C09FA0CF526EAB5
:1031900005052D4EB24508BF00260ED02B4EB24578
:1031A00008BF012609D02A4EB24508BF022604D026
:1031B000284EB2450CBF0326042606FA0CF646EA52
:1031C000050C43F820C0F8434D68ED0306D5D2F84E
:1031D00000C047EA0C0CC2F800C002E015680540C8
:1031E00015604D68D2F804C0AD034CBF47EA0C0C23
:1031F00000EA0C0CC2F804C04D68D2F808C0ED0219
:103200004CBF47EA0C0C00EA0C0C42E7BDE8F18722
:103210008068084018BF0120C0B2704702B9090495
:10322000016170470004014008000140181002408D
:1032300000001110000012100000211000002210E8
:10324000000031100000321000080140000C014065
:10325000001001400014014018B5014687B000225B
:10326000192000F0B9FD192000F0D3FD1448154CC9
:10327000016841F40061016001A9006800F4006088
:103280000090009802A8FFF742FEFFF736FE0E49B5
:103290000E4B2160B0FBF3F0401E40F2E73260605D
:1032A0000021E2602161A160204600F0C7FD18B94D
:1032B000204600F0D0FD00E0012008B010BD000065
:1032C00018100240D4110020002C014040420F0091
:1032D00080B50748016841F010010160032000F04B
:1032E0006EFD0020FFF7B8FF00F0DEFE002002BDFB
:1032F000002002402DE9F84185B0102200216846E7
:10330000FFF7ACFE3748384C0168384EDFF8E080F4
:1033100041F01001016049F21325026802F0100229
:1033200004924BF2C0070499026842F00402026062
:10333000036803F0040304930499026842F008024E
:1033400002600022006800F0080004904FF4604121
:1033500004982046FFF762FF002229463046FFF717
:103360005DFF002239464046FFF758FF4FF46041A9
:1033700000910122019200210291022203926946EA
:103380002046FFF775FE00F035F800956946304697
:10339000FFF76EFE4FF4C0700021009001910222F1
:1033A000029269463046FFF763FE04200021009038
:1033B0000191029140466946FFF75AFE00F01AF863
:1033C000009769464046FFF753FE4FF440600021E6
:1033D00000900191029130466946FFF749FE06B020
:1033E000BDE8F081181002400010014000080140C3
:1033F000000C014001200221019000220391029261
:10340000704700001FB500F08FF84FF48071564CE4
:103410005648A16020604FF46021E1610020012244
:1034200020756060032122732161204600F062FE56
:1034300008B1FFF711FE052001210090019107223C
:10344000029200F015F808B1FFF706FE082100917E
:10345000022200F00CF808B1FFF7FEFD09210091EF
:10346000032200F004F808B1FFF7F6FD1FBD01923A
:103470006946204601F071B818B585B0044610229F
:10348000002101A8FFF7EAFD21683848814232D1C6
:103490003748016841F400710160026802F400726B
:1034A00000920099026842F004020260036803F08F
:1034B0000403009303230099026842F008020260AB
:1034C0002022006800F00800009000990192029309
:1034D00001A92848FFF7CCFD03210191029101A920
:1034E0002548FFF7C5FD00220521122000F074FCDD
:1034F000122000F08EFC06B010BDE0B500F014F80C
:10350000052100910122029105E0E0B500F00CF8E0
:1035100008210091022201926946134801F01DF82A
:1035200008B1FFF799FD07BD0C2200216846FFF79F
:1035300095BD38B5FFF7E1FF02E038B5FFF7E5FFCD
:10354000094C204600F050FE4FF47A71204600F0FE
:1035500083FE204600F083FF0546204600F069FE0A
:10356000284632BD00000000E01200200024014087
:103570001810024000080140000C014080B52C48A2
:103580002C4901604FF4827228214260C1610023FE
:103590004FF400720A218360C3600361436182615A
:1035A000036243628362C16201F0D2F818B1BDE8E0
:1035B0000140FFF751BD01BD18B585B0044610228A
:1035C00000216846FFF74AFD21681A4881422DD143
:1035D00019481A4C016841F480510160026802F4F4
:1035E000805204920499026842F008020260282185
:1035F000006800F0080004900222049800910192F3
:103600000321039120466946FFF732FD1020002177
:1036100000900191029120466946FFF729FD084874
:10362000016841F0E06141F00101016006B010BDA8
:10363000281100200030014018100240000C014009
:103640000400014080B55C485C4941604FF4E132C0
:10365000826000210C22C160016141618261C1610F
:103660000162001D01F0D0F800B114E001BD80B589
:103670005348544901604FF4E13200230C21426069
:103680008360C360036141618361C36101F0BCF881
:1036900000B100E001BDBDE80140FFF7DDBC30B581
:1036A00085B06946002200230024002581E83C0003
:1036B0000068424A444990421AD14868434C40F459
:1036C00000304860486800F40030049004980A68AC
:1036D00042F004020A600222096801F00401049128
:1036E000042100F034F80822009200F02AF826E0C5
:1036F000344A904223D14868354C40F480204860D9
:10370000486800F48020049004980A6842F0080297
:103710000A600222096801F0080104914FF48061F7
:1037200000F015F84FF40060009000F00AF8002255
:103730000521272000F050FB272000F06AFB05B090
:1037400030BD0195029569462046FFF791BC04986B
:10375000009101920321039120466946FFF788BC3E
:1037600015490122081D01F0E4B810B5124C20786B
:1037700028B1012301222146201D01F082F82146B3
:10378000201DBDE81040012201F0D3B80446FDF72A
:1037900081BC000038B5FFF7F9FF074D82B2322334
:1037A0002146281D01F06DF80EA000F013F8281D29
:1037B00001F067F831BD00001C12002000440040F9
:1037C0006412002000480040181002400008014028
:1037D000000C01400088ADF8000001230222694678
:1037E000704700000D0A0000AB4B036003F154006A
:1037F000086044211160704710B50021BBA0A74CA0
:1038000000F0ADF920600021BFA000F0A8F96060D1
:103810005FF00001C3A000F0A2F9A06010BD38B5B0
:103820009F4C00F051F900224FF400512046FFF761
:10383000F5FC00F0D1F89B4C012200F0CEF89A4D37
:10384000012200F016F80122022100F013F84FF4D3
:103850007A7000F0B3F900F0BFF8002200F009F828
:103860000022022100F006F842F2107000F0A6F9E2
:10387000FAE701212846FFF7D1BC00002DE9F847FF
:1038800087B0012280218648874CDFF820820FF222
:103890005029FFF7C3FC012200F09FF84FF4FA70A3
:1038A00000F08CF901224FF400712046FFF7B6FCBE
:1038B000FFF756FF002001F037FEFFF765FB98F891
:1038C00098017B4C00F0EF0088F8980108F5F4753A
:1038D0000C212878697000F0FE00287008F5187730
:1038E0004EF6602073497860B9600126FFF74CFB03
:1038F000F8600FF2A01AFFF747FB3861387800F044
:10390000FE00387001F067FD72A0FFF743FF00F082
:103910004CF898F89801C0F3001080B102260EE030
:103920002878C1070AD400F045F8687801F052FB06
:10393000287800F0FE002870012600E00326FFF73B
:1039400023FBFA687968801A81420CD23878C10763
:1039500009D500F02FF80A2001F03CFB01F05CFFD4
:10396000FFF712FBF860FFF70FFB3A69B968801A9E
:10397000814207D23878C10704D501F04DFFFFF727
:1039800003FB38614FF47A7000F018F9012EBED0B5
:10399000D5D3032EC7D0D2D200F007F898F89801FB
:1039A000C0F300100028BBD1C6E75246C8214846E4
:1039B00001F04ABA606B0690216B0591E06A0490B1
:1039C000A16A0391606A0290216A01916069009086
:1039D000E3692269A169704700224FF40041204643
:1039E000FFF71CBC7CB500224FF400512D482E4C33
:1039F000314D2F4EFFF712FC00F066F850A0D0E9D1
:103A00000023CDE90023684602F056F82B4802F067
:103A1000C5F8002002F02EF9294800F0E5FB01204E
:103A200002F0FAF83061012002F008F9706106F145
:103A30001C0206F11801684602F05CF8FFF779FDF8
:103A400002F060F91F4902F06FF90146284602F0C2
:103A5000F7F93062FFF771FD02F054F9194902F0ED
:103A600063F90146284602F0EBF97062F168B0682C
:103A7000B062F16220464FF48071FFF7C9FB7063BA
:103A800004210748FFF7C4FB306342F2107000F0D6
:103A900095F8C4E74F4B0000C80E0020101300201B
:103AA000000C01400010014000080140800B002084
:103AB000A8120020009749010000844180110020D5
:103AC000E012002000F07F4500224FF48051204694
:103AD000FFF7A4BB53696D2073746172740000001A
:103AE00041542B435245473F0D0A00000C7C00080F
:103AF0001F38000800000000000000004000000027
:103B00000000000000000000187C00087D3800085C
:103B1000FDFF0000000000000001000000000000A8
:103B200000000000247C0008E5390008FDFF0000CB
:103B30000000000080000000000000000000000005
:103B4000801100204400000001460020842918BF95
:103B5000C81C704780B502F0DDFA002002BD38B500
:103B6000044684B060690D4600281CBFA069002887
:103B700012D0B4F90800FFF7E7FFA16902912B46C4
:103B800062690192009022692168606802F0C4F9BC
:103B90000390039805B030BDB4F90800FFF7D4FFD7
:103BA00003A9019100902B4622692168606892B2B6
:103BB00002F0E2F90128ECD00020EBE780B500B973
:103BC000012002F090FA002002BD00002DE9FC4126
:103BD0000646604D3078C10750D5A8690024C10061
:103BE00009D4A86940F08050A8610124A86900F0B8
:103BF000805000900098584F3868C10511D438683B
:103C000040F480703860FFF7BFF980463868C1051E
:103C100007D4FFF7B9F9A0EB08006528F6D3032015
:103C20003FE0E86910F440701EBF716801F4407114
:103C3000884218D04949E86901220A60002320F42B
:103C400040700B60E861C0070DD5FFF79DF907468E
:103C5000E869810707D4FFF797F9C01B41F2893162
:103C60008842F5D3DBE7EA69706822F440720243C8
:103C7000EA611CB1A86920F08050A8613078810702
:103C800005D52A68B06822F4404202432A603178A0
:103C9000C80605D52968F06821F480010143296030
:103CA0000020BDE8F681000010B5002101282C4C51
:103CB00025D0022843D010284AD160682268D30159
:103CC00046D500BF29A1C0F38342C003895C0CD54F
:103CD000606800BF29A3234AC0F34040185CB2FBD0
:103CE000F0F308461946414301E01F4A514360681A
:103CF00042022DD449000320B1FBF0F128E0206AF4
:103D000040F202320240B2F5817F08BF4FF4004119
:103D10001ED000F44072B2F5007F05D1626A9307AD
:103D200048BF49F6404113D400F44070B0F5407FDD
:103D30000ED1206882030BD54FF2244108E0FFF733
:103D4000DCF86168C1F38131491C4900B0FBF1F135
:103D5000084610BD0410024000700040400442427A
:103D60000010024000127A0000093D000203040521
:103D7000060708090A0B0C0D0E0F101001020000B7
:103D800002494A68087882184A6070470C0000208F
:103D90004018491C1CBFB1F1010100F8012DF9D1F7
:103DA000704700000901020002D41F488154704787
:103DB0001E4B02F00F021A4402F8041C70471C4B01
:103DC00019684FF6FF020002114000F4E06008435A
:103DD000184908431860704770B5154B1C68C4F348
:103DE00002230124C3F10705052D2EBF0F2504FA78
:103DF00005F56D1E1E1D072E34BF0023DB1E294056
:103E0000994004FA03F3BDE870405B1E1A40114369
:103E1000C8E7010007D4012200F01F01064B8A40C9
:103E2000400943F82020704700E400E018ED00E06E
:103E30000CED00E00000FA0500E100E038B50400F8
:103E400001D1012032BD00F049F818B900F042F864
:103E500002F0E0FA2AE090F83D10012901D001209B
:103E60007047022180F83D100168CA6842F00102E3
:103E7000CA600168DFF86C20914218BFB1F1804F31
:103E800007D0DFF8642091421CBFDFF86030994210
:103E900005D1896801F00701062905D001680A6883
:103EA000084642F00102026000207047022068705C
:103EB000211D206800F0C0F80120A8720121A9701E
:103EC000E87029716871A971E87129726872697066
:103ED000002032BD002129702046704704F13C05C6
:103EE00068787047002C0140000400400008004042
:103EF00010B50446206801698A0715D5C1688A078C
:103F000012D56FF00201016101222277806910F061
:103F1000030F204602D002F07EFA03E002F07CFAA2
:103F200000F087F800202077206801694A0715D53E
:103F3000C1684A0712D56FF004010161022222779D
:103F4000806910F4407F204602D002F064FA03E05A
:103F500002F062FA00F06DF8002020772068016915
:103F60000A0715D5C1680A0712D56FF0080101616B
:103F700004222277C06910F0030F204602D002F01D
:103F80004AFA03E002F048FA00F053F800202077E4
:103F900020680169CA0615D5C168CA0612D56FF036
:103FA0001001016108222277C06910F4407F204689
:103FB00002D002F030FA03E002F02EFA00F039F8F5
:103FC0000020207720680169CA0708D5C168CA07A0
:103FD00005D56FF0010101612046FFF733F8206835
:103FE00001690A0608D5C1680A0605D56FF0800187
:103FF0000161204602F011FA206801694A0608D5DD
:10400000C1684A0605D56FF040010161204602F003
:1040100005FA206801698A060AD5C1688A0607D5AB
:104020006FF0200101612046BDE8104002F0F7B9B1
:1040300010BD204602F0F4B970B50368164E174C57
:10404000174DB04218BFB0F1804F03D0A84218BF3F
:10405000A04209D14A6823F070031343B0421CBF49
:10406000B0F1804FA84201D0A04203D1CA6823F426
:10407000407313434A6923F0800313430360B04243
:104080008B68C3620A68826202D10969054A1160BD
:104090000123436170BD0000002C01400008004076
:1040A00000040040302C014080B51048016841F008
:1040B00001010160026802F0010200920099426869
:1040C00042F0805242600022406800F08050009030
:1040D0000F2100986FF00100FFF77EFE0448016891
:1040E00021F0E06141F00071016001BD1810024053
:1040F00004000140F8B5044600270026002C71D0CA
:1041000004F12405686828B90021A96028702046B8
:10411000FFF7B2F9204600F0F3FA6968CA065DD4E9
:1041200001005BD1696821F4885141F002016960A6
:104130006368E269217B1343A26843EA4103B2F555
:10414000807F14BF012A4FF48077227D012A0FD18E
:1041500031B9A169491E47EA413747F4006707E0D2
:10416000696841F020016960A96841F00101A96016
:1041700021684A6822F4694217434F602268DFF8D9
:10418000481597680F401F439760A168B1F5807F7D
:1041900018BF012902D12669761E36052168CA6A30
:1041A00022F470021643CE622468DFF82015A2685C
:1041B0000A409A4207D10023AB6001216A6861F38B
:1041C00001026A60F2BD686820F0020040F0100051
:1041D0006860A86840F00100A86003E0686840F0EB
:1041E000100068600120F2BDF8B500F007F901D1B8
:1041F0000220F2BD00F0F2F8010019D16A68DFF880
:10420000D01400F0EFF80DD10F6817F4702F09D01B
:1042100000F0D5F800F0DAF846BFAB6823F00603EB
:10422000002302E000F0C4F8F4E700F0EDF8F3E05A
:10423000BBE010B500F124042178012901D102204E
:1042400010BD0121217000F05BFA010001D100F0E6
:10425000F9F80021217010BD2DE9FC410546002030
:1042600000900C46FEF790FE804628688168CA05DB
:1042700005F1240707D5786840F020007860002118
:10428000397001208FE04168CA051CD4C06A10F45F
:10429000700F18D1286801688A0769D414F1010FDA
:1042A000F8D02CB1FEF770FEA0EB08008442F1D2EA
:1042B000286801688A07EDD4786840F004007860C7
:1042C0000021397052E00220FFF7EEFC2968DFF888
:1042D0000464D1F810C0DFF80024DFF800341CEAD1
:1042E000060F02BFD1F80CC0DFF8F4631CEA060F1A
:1042F00009D1D1F810C01CEA030F05BFC9681142EB
:104300002926142612E0D1F810C01CEA030F04BFBE
:10431000CB68134207D00B69DFF8C823134204BFF0
:10432000C968114201D1542600E0FC26DFF8B81319
:104330000A68B2FBF0F0464302E00099491C009184
:104340000098B04214D214F1010FF6D02CB1FEF750
:104350001BFEA0EB08008442EFD20098B042ECD2E2
:10436000796841F0040179600020387003201AE078
:1043700028686FF0120101607A6842F400727A6076
:10438000286800F066F804BF287B00280AD1786806
:1043900020F4807078607868C10403D4786840F0B5
:1043A000010078600020BDE8F68100212970F2BD8F
:1043B0006F6827F480176F607668770570476E68BE
:1043C00046F480166E600F687E05704703D56E68F0
:1043D00063F30D366E606B68DE0470470120287051
:1043E000204639E10A4042F480726A60012326685F
:1043F000DFF8F822DFF8F81296427047044604F11D
:104400002405287801287047AB6000262E706FF0D5
:10441000020325682B60704723689C6804F46024BD
:10442000B4F5602F09D1934203D1096811F4702FBC
:1044300003D1996841F4A00102E0996841F4801128
:104440009960F2BD616821F4885141F00101616019
:104450007047816801F46021B1F5602F70470068F2
:10446000C06C704710B5044621684868820623D5A1
:10447000084603689A071FD5A06AC20603D4A06A3B
:1044800040F40070A06200F05CF804BF207B0028BC
:104490000BD1486820F020004860A06A20F48070AA
:1044A000A062A06AC10400F052F8204601F0B9FFF2
:1044B00021686FF0120008602168486802062CD558
:1044C000084603685A0728D5A06AC20603D4A06A22
:1044D00040F40050A062886800F4E040B0F5E04F7E
:1044E00008D04868420511D400F02BF804BF207BA7
:1044F00000280BD1486820F080004860A06A20F4B2
:104500008050A062A06AC10500F021F8204601F0A9
:1045100089FF21686FF00C0008602268506841062E
:104520000ED510460268D1070AD5A06A40F4803043
:10453000A062204601F077FF21686FF0010008605B
:1045400010BD886800F46020B0F5602F704703D478
:10455000A06A40F00100A0627047F8B50023009304
:104560000A4600F1240300211C78012C01D102200D
:10457000F2BD01241C701F27546815680668072CBB
:1045800008D2641E04EB8404D6F834C000F05EF850
:10459000756312E00D2C08D2E41F04EB8404D6F8F6
:1045A00030C000F053F8356307E00D3C04EB8404A1
:1045B000D6F82CC000F04AF8F56207271668946810
:1045C00005680A2E08D30A3E06EB4606D5F80CC04D
:1045D00000F036F8EC6006E006EB4606D5F810C0B1
:1045E00000F02EF82C611468102C18BF112C23D168
:1045F0000068404CA0421AD13F4805682C021BD4E9
:10460000056845F4000505601068102814D1364A85
:104610003A4D1468B4FBF5F50A204543009500981F
:1046200000281EBF0098401E0090F8D104E0012130
:10463000586840F020005860002018700846F2BD0D
:10464000B7402CEA0707B4403C437047A7402CEA28
:104650000707A5403D43704738B504460020009049
:1046600020688168CA072CD48168244A41F001017E
:1046700081601D480168B1FBF2F2009202E00098EF
:10468000401E009000980028F9D1FEF77DFC0546F9
:1046900000F05AF815D4FEF777FC401B0328F7D337
:1046A00000F052F8F4D404F124000022416841F0F3
:1046B00010014160816841F00101816002700120B8
:1046C00032BD002032BD0000FDF7E1FFFE0E1FFFEE
:1046D000FEFDFFFF244992249224490092244912AE
:1046E000244992004992240018000020002801402B
:1046F00004240140002401400824014040420F00EE
:1047000038B5044620688168CA071BD58168490806
:1047100049008160FEF738FC054600F015F811D518
:10472000FEF732FC401B0328F7D300F00DF8F4D558
:10473000A16A41F01001A162E06A40F00100E0626C
:10474000012032BD002032BD20688168C807704753
:1047500038B5040001D1012032BD606A30B960680B
:10476000B0F5827F05D00021E16102E000202061E8
:1047700060610020A06204F15005687820B9002132
:1047800029702046FEF718FF0220687000F036F806
:104790006068A168E26800F4827001F40441084393
:1047A000217C02F400621043227D01F002010843E3
:1047B000A16902F001021043227F01F40071084355
:1047C00094F8201002F038021043A26A01F0800130
:1047D0000843216802F4005210430860A069216870
:1047E000000C00F0040048602068C16921F40061F9
:1047F000C161002068600121697032BD20680168D4
:1048000021F040010160704738B5040001D101205A
:1048100032BD00F028F808B900F016F800F019F8D9
:1048200000F025F8FFE7416100F001F832BD206893
:10483000C16841F40051C1600020686020216970A6
:104840002020A87000207047002129702046FEF724
:1048500026BF242068702068C16821F40051C1601F
:10486000204600F065BA04F13C056878704720687E
:10487000016921F4904101612068416921F02A0118
:1048800070472DE9F843054605F13C060C46707863
:1048900020281746994649D10CB1380001D1012092
:1048A00045E03078012841D001213170002070604E
:1048B00021227270FEF768FBAF848046EF84A868FF
:1048C000B0F5805F04BF286900280EBF2746204648
:1048D00000270021317004460EE014F8012B4260DD
:1048E00007E02868002CF8D137F8021BC1F3080153
:1048F0004160E88C411EE9844346E88CCDF8009085
:10490000002807D000228021284600F047F900281F
:10491000E7D005E000224021284600F03FF908B129
:10492000032004E020207070002000E00220BDE899
:10493000F28338B500F130039C7B202C0FD109B1F4
:10494000140001D1012032BD1C7B012C07D00124B1
:104950001C7300251D60BDE8384000F052B90220EC
:1049600032BD2068C16821F01001C1607047416903
:1049700021F040014161A06B7047F8B504462568FD
:104980002B6828460146C6684A6913F00F0F03F0EA
:10499000200106F0200007D1002918BF00285BD0B5
:1049A0002046BDE8F24067E1D70702D416F4907FB5
:1049B00052D0DD0705D5F60503D5256C45F0010578
:1049C00025645D0705D5D60703D5256C45F002059E
:1049D00025649D0705D5D60703D5256C45F004054C
:1049E00025641B0706D508B9D20703D5236C43F00D
:1049F00008032364226C002A2DD000291EBF002842
:104A0000204600F039F920684069216C0A0701D47A
:104A100040061BD5204600F00FF9206841694A0680
:104A20000FD5FFF7A4FF60B10FF23D214163A06BEA
:104A300001F01FFD00280ED0A06B416BBDE8F440D3
:104A400008472046BDE8F24001F06EBD204601F067
:104A50006BFD00202064F1BD206B012804F13D02B4
:104A600057D1D80655D5F10653D5002300932968B0
:104A7000009123685868009000992068436958069F
:104A800025D5A16B0868406880B20028E3D0A38DCB
:104A900098427CDAE0858869202814D02168C868AB
:104AA00020F48070C86000F073F82068416921F03C
:104AB000400141612020507000212163FFF751FF28
:104AC000A06B01F0B1FCA18DE08D091A1BE0A08D57
:104AD000E18D411AE08D00281CBF88B2002856D015
:104AE0002068C36823F49073C360206843695B083F
:104AF0005B00436120205070002222632068C2685E
:104B000022F01002C2602046BDE8F44089B201F0F4
:104B10000CBD18062BD5310629D51078212836D1A1
:104B2000A068B0F5805F04BF2069002809D1206A21
:104B300001882A46C1F308015160206A811C216264
:104B400005E0206A411C2162226800785060E08CF8
:104B5000401EE08480B2D0B92068C16821F0800195
:104B6000C1602068C16841F04001C160F1BD5806D4
:104B70000DD571060BD52846C16821F04001C160F2
:104B8000204620211170BDE8F24001F0CFBCF1BDFC
:104B90002068416949084900416170472DE9F041A9
:104BA000069C05460E4690461F462868016831401F
:104BB000B1420CBF01200020404519D114F1010F72
:104BC000F3D024B1FEF7E0F9C01B8442EDD228688F
:104BD000C16821F4D071C160202200F00CF805F109
:104BE0003C0020214170827000210170032000E010
:104BF0000020BDE8F0812868416949084900416109
:104C0000704781628285C28500F13C0100224A60C2
:104C100022238B700A700168CB6843F48073CB60E9
:104C200001684A6942F001024A610068C16841F0C6
:104C30002001C160002070470168CA6822F49072A8
:104C4000CA6001684A69520852004A61016B012931
:104C500004D10168CA6822F01002CA60202180F8DD
:104C60003E10002202637047406A0021C185002285
:104C7000C28401F059BC00001CB590F83E102229F6
:104C800054D18168826AB1F5805F0AD1016969B93E
:104C900003685968C1F308011180826A911C81621E
:104CA0000FE0002904BF0169002902D10368596897
:104CB00003E00168496801F07F011170816A4A1CB4
:104CC0008262C18D491EC18589B269BB0168CA680B
:104CD00022F02002CA600168CA6822F48072CA60A9
:104CE00001684A69520852004A61202180F83E104A
:104CF000026B012A16D1002101630168CA6822F003
:104D00001002CA6002681168CB0607D5002400941F
:104D100012680092036859680091009A818D01F031
:104D200004FC01E000F05FF8002016BD022016BD73
:104D300010B5044622681169E06821F4405101432E
:104D40001161D3681949A0680B4021690343606968
:104D50000B430343D3605169A06921F440710143BF
:104D6000516113498A4202D1FEF7C7F801E0FEF70C
:104D7000BCF86268192148439200B0FBF2F1642349
:104D8000B1FBF3F26FF0630000FB02110901323155
:104D9000B1FBF3F000F0F00101EB0211226800F02A
:104DA0000F004018906010BD00000000F3E9FFFF05
:104DB0000038014038B50446DFF8F459DFF8F4193B
:104DC00001222846FFF7B5FD2046FCF763F982B2C1
:104DD000642321462846FFF754FDBDE83240FFE733
:104DE0000A20FEF7EBBE38B50446DFF8CC19206880
:104DF00088421FD1DFF8C459287A20B3002301224A
:104E000005F10801DFF8B809FFF73BFDFEF7BCF834
:104E1000C5F80C01E988287A29444872E888FF28F7
:104E2000BCBF401CE880012205F10801DFF88009C1
:104E3000FFF77FFD2068DFF88C19884203D1BDE8B9
:104E40003140FEF792BC31BD2DE9F84306460D46D0
:104E50009046DFF8684903E04FF47A70FEF7AEFE43
:104E600094F89801C0F340010029F5D140F0020008
:104E700084F8980104F54F770020B872796004F542
:104E80003679FEF781F838603D816421484601F0AB
:104E90004FFB64224146484601F04EFB04F526785C
:104EA00040223146404601F047FB4046FFF782FF73
:104EB00000E00A3D002D07DD0A20FEF77FFEB87AEC
:104EC0000028F6D0BDE8F2836421484601F030FBAB
:104ED00000F048FCB87AF5E710B534A4224600F09B
:104EE0001FFB224600F017FB2246C8210FF64C108C
:104EF000FFF7AAFF41F28830FEF760FE0FF6501070
:104F0000FEF748FCDFF8C008017841F004010022F8
:104F10000170427010BD2DE9F041012841F2883541
:104F2000DFF8A868DFF894480FF630170FF634184A
:104F300021D100F03DF8012803D16420FEF73EFEA8
:104F40002BE094F8980100F0FB0000F035F8C82041
:104F5000FEF734FE00F038F82846FEF72FFE00F08A
:104F600027F8012819D094F8980100F0F70084F888
:104F70009801BDE8F08194F8980100F0F30000F08A
:104F80001BF8C820FEF71AFE00F01EF82846FEF7B0
:104F900015FE00F00DF80128E5D194F8980140F0D5
:104FA000080084F89801BDE8F04195E74F4B0000F8
:104FB0004246C821384647E784F8980100224FF45A
:104FC00000713046FEF72AB901224FF400713046D5
:104FD000FEF724B92DE9FF4F8BB0DFF8F4A7DDF819
:104FE0006890DDF874801E9C5021504601F0A0FAB4
:104FF0003221DFF8E007DFF8E067DFF8E07701F063
:1050000097FA7568DFF8D8270092484601F0A4FAAD
:10501000CDE90201DFF8CC270B98DFF8CC97079297
:105020000B2840F2DC5B00F2C281DFE810F00C00DC
:10503000600068007A0080009E00E000EA00F7004F
:105040002F0139017F01189C0E9D0121204600F09F
:105050003BFE0990204600F035FE089001210D9896
:1050600000F032FE04460D9800F02CFE07460121A8
:10507000284600F029FE8046284600F023FE05461B
:105080000C98012100F020FE83460C9800F01AFED7
:105090000999089A06910346059204940397CDF85E
:1050A00008800195CDF800B0494670680268504606
:1050B00001F076FA0121504600F0E0F95021504607
:1050C00001F036FA3221DFF80C0701F031FA4FF423
:1050D000FA70FEF773FD07990C2008750798C17CDC
:1050E00001F0FE01C17401200FB0BDE8F08F6A68C5
:1050F0000FF27C714346504601F052FADAE7199CF0
:105100000FF27870FEF746FB204601F025FACDE954
:105110000001706882680FF27071504601F040FA29
:10512000C8E7DDE90201CDE90001EA68F3E7387874
:10513000C10706D500F0FE0038702A690FF25471DD
:105140000CE040F001003870FDF71EFFF860FDF73D
:105150001BFF38610FF2447170680269504601F01C
:105160001FFA5046FEF716FBA4E70098016819B134
:1051700002291ED00DD32BE006F1380006F11402EF
:10518000706032600FF21C70FEF704FB0FF21C71AE
:105190000BE006F16000306006F1840171600FF2EF
:1051A0001870FEF7F7FA0FF21C71504601F0F8F98B
:1051B0000EE006F1AC0006F1D0013060716050469F
:1051C0000FF2087101F0ECF90FF20C70FEF7E2FA41
:1051D0000098DFF8004602680FF20871204601F0DF
:1051E000DFF900F0E6F8002001F0FAF962E70FF2CB
:1051F000FC60FEF7CFFA70680FF2F861826923460F
:1052000079E70FF2F860FEF7C5FADDE90201CDE9B2
:10521000000172680FF2EC61D2697EE70098416884
:105220000A292BD2D7E90823DFF8A8450FF2DC6161
:1052300020460A2501F0B4F90098406868430A3016
:1052400000F0B7F880B201F0CBF900984268521C28
:10525000426080A1204601F0A3F900F0AAF80920DD
:1052600001F0BEF9D7E90801CDE9000172680FF23B
:10527000A461126A504601F093F972E70FF2A0613F
:10528000504601F08DF90FF2A0606BE70FF2A460B9
:10529000FEF780FA0FF2A461504601F081F909E7A8
:1052A0000C98DFF8481501F009FA05D20FF2946066
:1052B00000F0D2F800F08CF8079801780C2941F240
:1052C000883606D20FF28C6000F0C6F83046FEF742
:1052D00075FCB8F1000F06D10FF2846000F0BCF845
:1052E0003046FEF76BFC0C98DFF8041501F0E6F988
:1052F00006D22CB90FF2786000F0AEF800F068F832
:1053000000F05CF805D209F12C0000F0A5F800F0DF
:105310005FF800F058F805D209F1540000F09CF84D
:1053200000F056F8FDF730FEF860C3E60C98DFF8A1
:10533000C41401F0C3F905D20FF2486000F08CF8F4
:1053400000F046F8079801780C2905D20FF20460A6
:1053500000F082F800F03CF8B8F13D0F05DA0FF2EA
:10536000006000F079F800F033F8002CC8BF0FF2AD
:10537000206008DC0C98DFF8801401F09FF906D259
:105380002CB90FF2146000F067F800F021F800F07B
:1053900015F802D300F017F805D20FF2146000F0F0
:1053A0005BF800F015F8FDF7EFFD386182E60020AC
:1053B0009AE64FF47A733222214670470C98DFF850
:1053C0003C1401F07BB90D98DFF8341401F076B984
:1053D0005846FEF7F3BB20B54FF47A7302222146FC
:1053E000002001F043F92046DFF8D05301F01AFA0B
:1053F000C5F8FC01D5F8FC11DFF8DC0319B102296E
:1054000013D009D31AE000F1140200F1380302604E
:1054100043600FF2904019E000F1600100F1840256
:10542000016042600FF2904010E000F1AC0100F129
:10543000D002016042600FF2A04007E000F11401C9
:1054400000F13802016042600FF27450BDE8204064
:10545000FEF7A0B92564000038B5DFF8A813DFF81F
:10546000A823DFF8A84331230125C1E90223C1E9BC
:105470000445C1E900230021BDE834402DE9FF4186
:1054800005460C46B3A6324600F04AF8324600F014
:1054900042F8CA4B0FF2305203F5B07841F2883629
:1054A000ADA73CB9D3E9A00100F02BF800F02FF82C
:1054B00038B90DE0D3E9780100F023F800F027F8BF
:1054C00030B140F2DC50FEF779FB2846FFF772FC62
:1054D0006420FEF773FB1A2000901A230FF2F842A3
:1054E000052102A801F0A4F90FF2F442314602A806
:1054F000FFF7AAFC18B10FF2F040FEF74BF9BDE838
:10550000FF81CDE900013221404601F091B93A46D0
:105510003146404698E4C8210FF2103094E4000070
:105520005FF0C801BEA08FE478B50446B84D87B0DF
:10553000002200F04AF81420FEF740FB9F4E96F838
:10554000980100F0FB0086F89801012200F03DF878
:1055500041F28830FEF732FB4FF45271304600F0D2
:10556000E7FF4FF4807106F1090001F083F9012291
:1055700006F10801DFF83802B8A5FFF7DAF9684646
:105580000FF2C4411C22FBF7BBFDADF8084000211F
:105590006846FEF7E4FA9F490A2408606DA6324681
:1055A000C8212846FFF750FC012805D0C820FEF787
:1055B00005FB641EF3D103E00FF23840FEF7EAF872
:1055C0000120FFF7A8FC08B070BD4FF40071284619
:1055D000FDF724BEF8B5794C0FF2284100F0BEF873
:1055E000B0B12C21FBF726FD401C01F01BF901286E
:1055F00094F8980104D140F0100084F8980107E075
:1056000000F0EF0084F898010FF20440FEF7C2F8B2
:105610000FF2044100F0A2F804F5F07530B13A2120
:10562000FBF708FD401C01F0FDF8287604F10900A5
:105630000FF2EC3101F021F960B33A21FBF7FAFCEB
:10564000471C384601F0EEF804F5EA76317801F0AF
:10565000FC0258B1012805D101F0FD0141F0010122
:10566000317004E0022802D142F0020232702C2193
:105670003846FBF7DFFC471C384601F0D3F8707062
:105680002C213846FBF7D6FC401C01F083FA01F0D0
:1056900085FA706004F109000FF28C3101F0EDF829
:1056A000002838D02221FBF7C5FC401C01F07FFB0D
:1056B000C5E900010027484E306850F8271000F077
:1056C0004DF848B92A7A7F1C092102F0FE02092F01
:1056D00069722A72F0DD04E0297A6F7241F00101EB
:1056E0002972697A05290BD1002706EB87008168AA
:1056F00000F034F818B97F1C022FF6DD0BE0EF61E3
:10570000697A082907D12B21FBF794FC401C01F092
:105710004EFBC4E9A00104F53675287810B90021C4
:1057200084F84613294600F019F838B1012084F8AE
:105730004603FDF729FC696E401AA8660020E08048
:105740004FF4807104F1090001F094F800F00AF8B8
:10575000F1BD00004F4B00003E20000004F10900A5
:1057600001F08BB894F8980100F0FD0084F89801DE
:105770007047000010B500BFADA0104CFEF70AF84E
:10578000E088042810DDFDF7FFFBD4F80C11401A67
:10579000332809D3FDF7F8FB2060FFF71BFFFDF767
:1057A000F3FB2168401A20710A20FEF707FAE7E7A9
:1057B00064120020880B002000480040800B00206D
:1057C0002012002000440040180D0020000C014071
:1057D000900C0020E00C00201C000020E00D0020B8
:1057E0007C0D0020550D002010790008010040407C
:1057F0000100B0410100C040010000400100204212
:1058000000002042000E00207C5B258A5BE1D90766
:10581000000801402013002089A0FDF7BBBF000055
:1058200041542B434D47463D310D0A0041542B4313
:105830005343533D2247534D220D0A0041542B43FD
:105840004E4D493D312C322C302C302C300D0A007D
:1058500053696D20496E69740000000041540D0ABF
:105860000000000041540D0D0A4F4B0D0A000000CE
:10587000257320256420250A00000000574D4F6E37
:105880004F724F6666000000257320252E32660A8F
:10589000000000002573204F46460A002573204F64
:1058A0004E0A0000454E207365740000454E4720A7
:1058B0007365740A000000004974616C7920736597
:1058C000740000004954207365740A0044657574BF
:1058D0006368207365740A00446575746368207397
:1058E000657400002564250A0000000057696E6495
:1058F0000000000025732025640A0000566F6C74B8
:105900006167650025732025660A0000256C6C75AB
:1059100000000000257320256C6C750A0000000053
:1059200046756C6C000000004D656D2066756C6CF2
:10593000000000004572726F720000004552524F25
:10594000520A00004C6F772054656D702052756EBE
:1059500020574D004C6F7720426174746572790056
:105960004C6F7720476173204C6576656C000000B2
:10597000574D2072756E202C427574206E6F205723
:10598000696E64004C6F772054656D7000000000F4
:1059900057696E64204F4E00574D2072756E202C53
:1059A000427574206E6F2057696E642000000000FD
:1059B00053656E736F72204572726F720000000043
:1059C000444546207365740041542B434D47533D75
:1059D00022256C6C75220D000A25632563000000EA
:1059E0000D0A2B434D4753004D4553532053454E0D
:1059F0005400000053494D20524553504F4E5345DB
:105A0000204F4B000D0A2B435245473A000000003F
:105A10004E657420455252000D0A2B4353513A00F3
:105A20000D0A2B4342433A000D0A2B434D543A00D2
:105A300042756666657220737461727400000000BE
:105A4000416C657274000000E47C00087557000822
:105A50000000000000000000400000000000000006
:105A60000000000030B50346FF20002400E0641C65
:105A70008C420BD21A5D504008224500000654BFEC
:105A8000284685F03100521EF7D1F0E7C0B230BD94
:105A9000E0B58DF805100B0A1E2100918DF8043039
:105AA000022381880068490401AA090CFCF79EF9C9
:105AB000401E8041C00F0EBDF8B51E210291032289
:105AC00003AB0192009302238188006849044FF2DE
:105AD0002D32090CFCF748FC38B9022103A8FFF766
